:020000040800F2
:100000000050002059030008A9030008A9030008B4
:10001000A9030008A9030008A903000800000000C4
:10002000000000000000000000000000A90300081C
:10003000A903000800000000A9030008F502000859
:10004000A9030008A9030008A9030008A9030008E0
:10005000A9030008A9030008A9030008A9030008D0
:10006000A9030008A9030008A9030008A9030008C0
:10007000A9030008A9030008A9030008A9030008B0
:10008000A9030008A9030008A9030008A9030008A0
:10009000A9030008A9030008A9030008A903000890
:1000A000A9030008A9030008A9030008A903000880
:1000B000A9030008A9030008A9030008A903000870
:1000C000A9030008A9030008A9030008A903000860
:1000D000A9030008A9030008A9030008A903000850
:1000E000A9030008A903000800000000A9030008F4
:1000F000A9030008A9030008A9030008A903000830
:10010000A9030008A9030008A9030008A90300081F
:10011000A9030008A9030008A9030008A90300080F
:10012000A9030008A9030008A9030008A9030008FF
:1001300010B5054C237833B9044B13B10448AFF321
:1001400000800123237010BD00000020000000008B
:10015000F403000808B5034B1BB103490348AFF390
:10016000008008BD0000000004000020F403000827
:1001700080B485B000AF78607B6803F00703FB6054
:100180000C4BDB68BB60BA684FF6FF031340BB60E3
:10019000FB681A02BB68134343F0BF6343F40033A8
:1001A000BB60044ABB68D36000BF1437BD4680BC47
:1001B000704700BF00ED00E080B483B000AF03469D
:1001C0003960FB7197F90730002B0ADB3B68DAB224
:1001D0000C4997F907301201D2B20B4483F800237F
:1001E0000AE03B68DAB20849FB7903F00F03043BED
:1001F0001201D2B20B441A7600BF0C37BD4680BC48
:10020000704700BF00E100E000ED00E080B582B083
:1002100000AF00F07DF800237B60084B1A687B6814
:10022000D31AB3F57A7FF8D3044B1B687B60044B79
:10023000DB68034A83F40053D360EEE71C00002020
:100240000010014080B500AF274B9B69264A43F060
:1002500001039361244BDB69234A43F08053D3614C
:100260000320FFF785FF214B5B68204A43F00073B2
:1002700053601D4B1B681C4A43F48033136000BF5E
:10028000194B1B6803F40033B3F5003FF8D1164B4C
:10029000154A5B685360144B134A5B685360124BFA
:1002A000114A5B685360104B5B680F4A43F00103CF
:1002B000536000BF0C4B5B6803F00C03042BF9D1B7
:1002C00000BF0B4B41F63F725A600F214FF0FF30D9
:1002D000FFF772FF064B00229A60054B07221A6057
:1002E00000BF00BF80BD00BF001002400000014001
:1002F00010E000E080B400AF044B1B680133034AF8
:10030000136000BFBD4680BC704700BF1C000020CA
:1003100080B400AF0E4B9B690D4A43F0100393610C
:100320000B4B9B690A4A43F020039361084B9B697E
:10033000074A43F004039361064B4FF400125A60DE
:10034000044B0022DA6000BFBD4680BC704700BF8E
:1003500000100240001001400D488546FFF772FF73
:100360000C480D490D4A002302E0D458C450043310
:10037000C4188C42F9D30A4A0A4C002301E01360E6
:100380000432A242FBD300F011F8FFF73FFFFEE773
:10039000005000200000002000000020140400088D
:1003A0000000002020000020FEE7000070B50026BD
:1003B0000C4D0D4C641BA410A64209D100F01AF894
:1003C00000260A4D0A4C641BA410A64205D170BD3C
:1003D00055F8043B98470136EEE755F8043B98473B
:1003E0000136F2E70C0400080C0400080C040008B5
:1003F00010040008F8B500BFF8BC08BC9E46704762
:0C040000F8B500BFF8BC08BC9E46704771
:04040C00550100088E
:0404100031010008AE
:040000050800035993
:00000001FF
