:020000040800F2
:1000000000500020D503000825040008250400083E
:10001000250400082504000825040008000000004D
:10002000000000000000000000000000250400089F
:100030002504000800000000250400088D020008C7
:1000400025040008250400082504000825040008EC
:1000500025040008250400082504000825040008DC
:1000600025040008250400082504000825040008CC
:1000700025040008250400082504000825040008BC
:1000800025040008250400082504000825040008AC
:10009000250400082504000825040008250400089C
:1000A000250400082504000825040008250400088C
:1000B000250400082504000825040008250400087C
:1000C000250400082504000825040008250400086C
:1000D000250400082504000825040008250400085C
:1000E000250400082504000800000000250400087D
:1000F000250400082504000825040008250400083C
:10010000250400082504000825040008250400082B
:10011000250400082504000825040008250400081B
:10012000250400082504000825040008250400080B
:1001300010B5054C237833B9044B13B10448AFF321
:1001400000800123237010BD00000020000000008B
:100150007004000808B5034B1BB103490348AFF313
:10016000008008BD000000000400002070040008AA
:1001700080B485B000AF78607B6803F00703FB6054
:100180000C4BDB68BB60BA684FF6FF031340BB60E3
:10019000FB681A02BB68134343F0BF6343F40033A8
:1001A000BB60044ABB68D36000BF1437BD4680BC47
:1001B000704700BF00ED00E080B400AF044BDB6887
:1001C0001B0A03F007031846BD4680BC704700BFFA
:1001D00000ED00E080B483B000AF03463960FB71EE
:1001E00097F90730002B0ADB3B68DAB20C4997F924
:1001F00007301201D2B20B4483F800230AE03B68B7
:10020000DAB20849FB7903F00F03043B1201D2B2C2
:100210000B441A7600BF0C37BD4680BC704700BF48
:1002200000E100E000ED00E080B489B000AFF860CC
:10023000B9607A60FB6803F00703FB61FB69C3F1F7
:100240000703042B28BF0423BB61FB690433062B7F
:1002500002D9FB69033B00E000237B614FF0FF32D2
:10026000BB6902FA03F3DA43BB681A407B699A4020
:100270004FF0FF317B6901FA03F3D9437B680B40F0
:10028000134318462437BD4680BC704780B400AF86
:10029000044B1B680133034A136000BFBD4680BC9A
:1002A000704700BF1C00002080B582B000AF444BF7
:1002B0009B69434A43F001039361414BDB69404A28
:1002C00043F08053D3610320FFF752FFFFF774FF21
:1002D000034600220F211846FFF7A6FF03461946E2
:1002E0004FF0FF30FFF776FF364B5B6823F0E0639B
:1002F000344A43F000735360314B1B68304A43F477
:100300008033136000BF2E4B1B6803F40033B3F53A
:10031000003FF8D02A4B5B68294A23F0F003536072
:10032000274B5B68264A23F4E0635360244B5B68E9
:10033000234A23F460535360214B5B6823F003038B
:100340001F4A43F0010353601F4B43F67F625A601C
:100350000F214FF0FF30FFF73DFF1B4B00229A604B
:10036000194B07221A60164B9B69154A43F010037C
:100370009361134B9B69124A43F020039361104B26
:100380009B690F4A43F004039361104B4FF4001232
:100390005A600E4B0022DA6000237B600C4B1A6817
:1003A0007B68D31AB3F57A7FF8D3094B1B687B605F
:1003B000064BDB68054A83F40053D360EEE700BFC9
:1003C000001002400000014010E000E00010014079
:1003D0001C0000200D488546AFF300800C480D49F5
:1003E0000D4A002302E0D458C4500433C4188C4290
:1003F000F9D30A4A0A4C002301E013600432A242F6
:10040000FBD300F011F8FFF74FFFFEE7005000208C
:1004100000000020000000209004000800000020E0
:1004200020000020FEE7000070B500260C4D0D4CAA
:10043000641BA410A64209D100F01AF800260A4D48
:100440000A4C641BA410A64205D170BD55F8043BAC
:1004500098470136EEE755F8043B98470136F2E736
:100460008804000888040008880400088C04000838
:10047000F8B500BFF8BC08BC9E467047F8B500BF91
:08048000F8BC08BC9E46704761
:040488005501000812
:04048C003101000832
:04000005080003D517
:00000001FF
